{
  "_format": "hh-sol-artifact-1",
  "contractName": "MomoCandieNFT",
  "sourceName": "contracts/MomoCandieNFT.sol",
  "abi": [
    {
      "inputs": [
        {
          "internalType": "string",
          "name": "_unrevealedURI",
          "type": "string"
        },
        {
          "internalType": "address",
          "name": "initialOwner",
          "type": "address"
        }
      ],
      "stateMutability": "nonpayable",
      "type": "constructor"
    },
    {
      "inputs": [],
      "name": "ERC721EnumerableForbiddenBatchMint",
      "type": "error"
    },
    {
      "inputs": [
        {
          "internalType": "address",
          "name": "sender",
          "type": "address"
        },
        {
          "internalType": "uint256",
          "name": "tokenId",
          "type": "uint256"
        },
        {
          "internalType": "address",
          "name": "owner",
          "type": "address"
        }
      ],
      "name": "ERC721IncorrectOwner",
      "type": "error"
    },
    {
      "inputs": [
        {
          "internalType": "address",
          "name": "operator",
          "type": "address"
        },
        {
          "internalType": "uint256",
          "name": "tokenId",
          "type": "uint256"
        }
      ],
      "name": "ERC721InsufficientApproval",
      "type": "error"
    },
    {
      "inputs": [
        {
          "internalType": "address",
          "name": "approver",
          "type": "address"
        }
      ],
      "name": "ERC721InvalidApprover",
      "type": "error"
    },
    {
      "inputs": [
        {
          "internalType": "address",
          "name": "operator",
          "type": "address"
        }
      ],
      "name": "ERC721InvalidOperator",
      "type": "error"
    },
    {
      "inputs": [
        {
          "internalType": "address",
          "name": "owner",
          "type": "address"
        }
      ],
      "name": "ERC721InvalidOwner",
      "type": "error"
    },
    {
      "inputs": [
        {
          "internalType": "address",
          "name": "receiver",
          "type": "address"
        }
      ],
      "name": "ERC721InvalidReceiver",
      "type": "error"
    },
    {
      "inputs": [
        {
          "internalType": "address",
          "name": "sender",
          "type": "address"
        }
      ],
      "name": "ERC721InvalidSender",
      "type": "error"
    },
    {
      "inputs": [
        {
          "internalType": "uint256",
          "name": "tokenId",
          "type": "uint256"
        }
      ],
      "name": "ERC721NonexistentToken",
      "type": "error"
    },
    {
      "inputs": [
        {
          "internalType": "address",
          "name": "owner",
          "type": "address"
        },
        {
          "internalType": "uint256",
          "name": "index",
          "type": "uint256"
        }
      ],
      "name": "ERC721OutOfBoundsIndex",
      "type": "error"
    },
    {
      "inputs": [
        {
          "internalType": "address",
          "name": "owner",
          "type": "address"
        }
      ],
      "name": "OwnableInvalidOwner",
      "type": "error"
    },
    {
      "inputs": [
        {
          "internalType": "address",
          "name": "account",
          "type": "address"
        }
      ],
      "name": "OwnableUnauthorizedAccount",
      "type": "error"
    },
    {
      "inputs": [],
      "name": "ReentrancyGuardReentrantCall",
      "type": "error"
    },
    {
      "anonymous": false,
      "inputs": [
        {
          "indexed": true,
          "internalType": "address",
          "name": "owner",
          "type": "address"
        },
        {
          "indexed": true,
          "internalType": "address",
          "name": "approved",
          "type": "address"
        },
        {
          "indexed": true,
          "internalType": "uint256",
          "name": "tokenId",
          "type": "uint256"
        }
      ],
      "name": "Approval",
      "type": "event"
    },
    {
      "anonymous": false,
      "inputs": [
        {
          "indexed": true,
          "internalType": "address",
          "name": "owner",
          "type": "address"
        },
        {
          "indexed": true,
          "internalType": "address",
          "name": "operator",
          "type": "address"
        },
        {
          "indexed": false,
          "internalType": "bool",
          "name": "approved",
          "type": "bool"
        }
      ],
      "name": "ApprovalForAll",
      "type": "event"
    },
    {
      "anonymous": false,
      "inputs": [
        {
          "indexed": true,
          "internalType": "address",
          "name": "previousOwner",
          "type": "address"
        },
        {
          "indexed": true,
          "internalType": "address",
          "name": "dao",
          "type": "address"
        }
      ],
      "name": "DaoHandoff",
      "type": "event"
    },
    {
      "anonymous": false,
      "inputs": [
        {
          "indexed": false,
          "internalType": "bytes32",
          "name": "root",
          "type": "bytes32"
        }
      ],
      "name": "MerkleRootUpdated",
      "type": "event"
    },
    {
      "anonymous": false,
      "inputs": [
        {
          "indexed": true,
          "internalType": "address",
          "name": "previousOwner",
          "type": "address"
        },
        {
          "indexed": true,
          "internalType": "address",
          "name": "newOwner",
          "type": "address"
        }
      ],
      "name": "OwnershipTransferred",
      "type": "event"
    },
    {
      "anonymous": false,
      "inputs": [
        {
          "indexed": true,
          "internalType": "enum MomoCandieNFT.Phase",
          "name": "previous",
          "type": "uint8"
        },
        {
          "indexed": true,
          "internalType": "enum MomoCandieNFT.Phase",
          "name": "next",
          "type": "uint8"
        }
      ],
      "name": "PhaseChanged",
      "type": "event"
    },
    {
      "anonymous": false,
      "inputs": [
        {
          "indexed": false,
          "internalType": "string",
          "name": "baseURI",
          "type": "string"
        }
      ],
      "name": "Revealed",
      "type": "event"
    },
    {
      "anonymous": false,
      "inputs": [
        {
          "indexed": true,
          "internalType": "address",
          "name": "from",
          "type": "address"
        },
        {
          "indexed": true,
          "internalType": "address",
          "name": "to",
          "type": "address"
        },
        {
          "indexed": true,
          "internalType": "uint256",
          "name": "tokenId",
          "type": "uint256"
        }
      ],
      "name": "Transfer",
      "type": "event"
    },
    {
      "anonymous": false,
      "inputs": [
        {
          "indexed": true,
          "internalType": "address",
          "name": "to",
          "type": "address"
        },
        {
          "indexed": false,
          "internalType": "uint256",
          "name": "amount",
          "type": "uint256"
        }
      ],
      "name": "Withdrawn",
      "type": "event"
    },
    {
      "inputs": [],
      "name": "MAX_PER_TX",
      "outputs": [
        {
          "internalType": "uint256",
          "name": "",
          "type": "uint256"
        }
      ],
      "stateMutability": "view",
      "type": "function"
    },
    {
      "inputs": [],
      "name": "MAX_PER_WALLET_PRESALE",
      "outputs": [
        {
          "internalType": "uint256",
          "name": "",
          "type": "uint256"
        }
      ],
      "stateMutability": "view",
      "type": "function"
    },
    {
      "inputs": [],
      "name": "MAX_PER_WALLET_PUBLIC",
      "outputs": [
        {
          "internalType": "uint256",
          "name": "",
          "type": "uint256"
        }
      ],
      "stateMutability": "view",
      "type": "function"
    },
    {
      "inputs": [],
      "name": "MAX_SUPPLY",
      "outputs": [
        {
          "internalType": "uint256",
          "name": "",
          "type": "uint256"
        }
      ],
      "stateMutability": "view",
      "type": "function"
    },
    {
      "inputs": [],
      "name": "RESERVE_LIMIT",
      "outputs": [
        {
          "internalType": "uint256",
          "name": "",
          "type": "uint256"
        }
      ],
      "stateMutability": "view",
      "type": "function"
    },
    {
      "inputs": [
        {
          "internalType": "address",
          "name": "to",
          "type": "address"
        },
        {
          "internalType": "uint256",
          "name": "tokenId",
          "type": "uint256"
        }
      ],
      "name": "approve",
      "outputs": [],
      "stateMutability": "nonpayable",
      "type": "function"
    },
    {
      "inputs": [
        {
          "internalType": "address",
          "name": "owner",
          "type": "address"
        }
      ],
      "name": "balanceOf",
      "outputs": [
        {
          "internalType": "uint256",
          "name": "",
          "type": "uint256"
        }
      ],
      "stateMutability": "view",
      "type": "function"
    },
    {
      "inputs": [],
      "name": "currentPhase",
      "outputs": [
        {
          "internalType": "enum MomoCandieNFT.Phase",
          "name": "",
          "type": "uint8"
        }
      ],
      "stateMutability": "view",
      "type": "function"
    },
    {
      "inputs": [
        {
          "internalType": "address",
          "name": "dao",
          "type": "address"
        }
      ],
      "name": "daoHandoff",
      "outputs": [],
      "stateMutability": "nonpayable",
      "type": "function"
    },
    {
      "inputs": [
        {
          "internalType": "uint256",
          "name": "tokenId",
          "type": "uint256"
        }
      ],
      "name": "getApproved",
      "outputs": [
        {
          "internalType": "address",
          "name": "",
          "type": "address"
        }
      ],
      "stateMutability": "view",
      "type": "function"
    },
    {
      "inputs": [
        {
          "internalType": "address",
          "name": "owner",
          "type": "address"
        },
        {
          "internalType": "address",
          "name": "operator",
          "type": "address"
        }
      ],
      "name": "isApprovedForAll",
      "outputs": [
        {
          "internalType": "bool",
          "name": "",
          "type": "bool"
        }
      ],
      "stateMutability": "view",
      "type": "function"
    },
    {
      "inputs": [],
      "name": "merkleRoot",
      "outputs": [
        {
          "internalType": "bytes32",
          "name": "",
          "type": "bytes32"
        }
      ],
      "stateMutability": "view",
      "type": "function"
    },
    {
      "inputs": [
        {
          "internalType": "uint256",
          "name": "quantity",
          "type": "uint256"
        }
      ],
      "name": "mint",
      "outputs": [],
      "stateMutability": "payable",
      "type": "function"
    },
    {
      "inputs": [
        {
          "internalType": "uint256",
          "name": "quantity",
          "type": "uint256"
        },
        {
          "internalType": "bytes32[]",
          "name": "proof",
          "type": "bytes32[]"
        }
      ],
      "name": "mintPresale",
      "outputs": [],
      "stateMutability": "payable",
      "type": "function"
    },
    {
      "inputs": [],
      "name": "name",
      "outputs": [
        {
          "internalType": "string",
          "name": "",
          "type": "string"
        }
      ],
      "stateMutability": "view",
      "type": "function"
    },
    {
      "inputs": [],
      "name": "owner",
      "outputs": [
        {
          "internalType": "address",
          "name": "",
          "type": "address"
        }
      ],
      "stateMutability": "view",
      "type": "function"
    },
    {
      "inputs": [
        {
          "internalType": "uint256",
          "name": "tokenId",
          "type": "uint256"
        }
      ],
      "name": "ownerOf",
      "outputs": [
        {
          "internalType": "address",
          "name": "",
          "type": "address"
        }
      ],
      "stateMutability": "view",
      "type": "function"
    },
    {
      "inputs": [
        {
          "internalType": "address",
          "name": "",
          "type": "address"
        }
      ],
      "name": "presaleMinted",
      "outputs": [
        {
          "internalType": "uint256",
          "name": "",
          "type": "uint256"
        }
      ],
      "stateMutability": "view",
      "type": "function"
    },
    {
      "inputs": [],
      "name": "presalePrice",
      "outputs": [
        {
          "internalType": "uint256",
          "name": "",
          "type": "uint256"
        }
      ],
      "stateMutability": "view",
      "type": "function"
    },
    {
      "inputs": [
        {
          "internalType": "address",
          "name": "",
          "type": "address"
        }
      ],
      "name": "publicMinted",
      "outputs": [
        {
          "internalType": "uint256",
          "name": "",
          "type": "uint256"
        }
      ],
      "stateMutability": "view",
      "type": "function"
    },
    {
      "inputs": [],
      "name": "publicPrice",
      "outputs": [
        {
          "internalType": "uint256",
          "name": "",
          "type": "uint256"
        }
      ],
      "stateMutability": "view",
      "type": "function"
    },
    {
      "inputs": [],
      "name": "remainingSupply",
      "outputs": [
        {
          "internalType": "uint256",
          "name": "",
          "type": "uint256"
        }
      ],
      "stateMutability": "view",
      "type": "function"
    },
    {
      "inputs": [],
      "name": "renounceOwnership",
      "outputs": [],
      "stateMutability": "nonpayable",
      "type": "function"
    },
    {
      "inputs": [
        {
          "internalType": "address",
          "name": "to",
          "type": "address"
        },
        {
          "internalType": "uint256",
          "name": "quantity",
          "type": "uint256"
        }
      ],
      "name": "reserveMint",
      "outputs": [],
      "stateMutability": "nonpayable",
      "type": "function"
    },
    {
      "inputs": [],
      "name": "reserveMinted",
      "outputs": [
        {
          "internalType": "uint256",
          "name": "",
          "type": "uint256"
        }
      ],
      "stateMutability": "view",
      "type": "function"
    },
    {
      "inputs": [
        {
          "internalType": "string",
          "name": "baseURI",
          "type": "string"
        }
      ],
      "name": "reveal",
      "outputs": [],
      "stateMutability": "nonpayable",
      "type": "function"
    },
    {
      "inputs": [],
      "name": "revealed",
      "outputs": [
        {
          "internalType": "bool",
          "name": "",
          "type": "bool"
        }
      ],
      "stateMutability": "view",
      "type": "function"
    },
    {
      "inputs": [
        {
          "internalType": "address",
          "name": "from",
          "type": "address"
        },
        {
          "internalType": "address",
          "name": "to",
          "type": "address"
        },
        {
          "internalType": "uint256",
          "name": "tokenId",
          "type": "uint256"
        }
      ],
      "name": "safeTransferFrom",
      "outputs": [],
      "stateMutability": "nonpayable",
      "type": "function"
    },
    {
      "inputs": [
        {
          "internalType": "address",
          "name": "from",
          "type": "address"
        },
        {
          "internalType": "address",
          "name": "to",
          "type": "address"
        },
        {
          "internalType": "uint256",
          "name": "tokenId",
          "type": "uint256"
        },
        {
          "internalType": "bytes",
          "name": "data",
          "type": "bytes"
        }
      ],
      "name": "safeTransferFrom",
      "outputs": [],
      "stateMutability": "nonpayable",
      "type": "function"
    },
    {
      "inputs": [
        {
          "internalType": "address",
          "name": "operator",
          "type": "address"
        },
        {
          "internalType": "bool",
          "name": "approved",
          "type": "bool"
        }
      ],
      "name": "setApprovalForAll",
      "outputs": [],
      "stateMutability": "nonpayable",
      "type": "function"
    },
    {
      "inputs": [
        {
          "internalType": "bytes32",
          "name": "_root",
          "type": "bytes32"
        }
      ],
      "name": "setMerkleRoot",
      "outputs": [],
      "stateMutability": "nonpayable",
      "type": "function"
    },
    {
      "inputs": [
        {
          "internalType": "enum MomoCandieNFT.Phase",
          "name": "_phase",
          "type": "uint8"
        }
      ],
      "name": "setPhase",
      "outputs": [],
      "stateMutability": "nonpayable",
      "type": "function"
    },
    {
      "inputs": [
        {
          "internalType": "uint256",
          "name": "_presale",
          "type": "uint256"
        },
        {
          "internalType": "uint256",
          "name": "_public",
          "type": "uint256"
        }
      ],
      "name": "setPrices",
      "outputs": [],
      "stateMutability": "nonpayable",
      "type": "function"
    },
    {
      "inputs": [
        {
          "internalType": "bytes4",
          "name": "interfaceId",
          "type": "bytes4"
        }
      ],
      "name": "supportsInterface",
      "outputs": [
        {
          "internalType": "bool",
          "name": "",
          "type": "bool"
        }
      ],
      "stateMutability": "view",
      "type": "function"
    },
    {
      "inputs": [],
      "name": "symbol",
      "outputs": [
        {
          "internalType": "string",
          "name": "",
          "type": "string"
        }
      ],
      "stateMutability": "view",
      "type": "function"
    },
    {
      "inputs": [
        {
          "internalType": "uint256",
          "name": "index",
          "type": "uint256"
        }
      ],
      "name": "tokenByIndex",
      "outputs": [
        {
          "internalType": "uint256",
          "name": "",
          "type": "uint256"
        }
      ],
      "stateMutability": "view",
      "type": "function"
    },
    {
      "inputs": [
        {
          "internalType": "address",
          "name": "owner",
          "type": "address"
        },
        {
          "internalType": "uint256",
          "name": "index",
          "type": "uint256"
        }
      ],
      "name": "tokenOfOwnerByIndex",
      "outputs": [
        {
          "internalType": "uint256",
          "name": "",
          "type": "uint256"
        }
      ],
      "stateMutability": "view",
      "type": "function"
    },
    {
      "inputs": [
        {
          "internalType": "uint256",
          "name": "tokenId",
          "type": "uint256"
        }
      ],
      "name": "tokenURI",
      "outputs": [
        {
          "internalType": "string",
          "name": "",
          "type": "string"
        }
      ],
      "stateMutability": "view",
      "type": "function"
    },
    {
      "inputs": [],
      "name": "totalMinted",
      "outputs": [
        {
          "internalType": "uint256",
          "name": "",
          "type": "uint256"
        }
      ],
      "stateMutability": "view",
      "type": "function"
    },
    {
      "inputs": [],
      "name": "totalSupply",
      "outputs": [
        {
          "internalType": "uint256",
          "name": "",
          "type": "uint256"
        }
      ],
      "stateMutability": "view",
      "type": "function"
    },
    {
      "inputs": [
        {
          "internalType": "address",
          "name": "from",
          "type": "address"
        },
        {
          "internalType": "address",
          "name": "to",
          "type": "address"
        },
        {
          "internalType": "uint256",
          "name": "tokenId",
          "type": "uint256"
        }
      ],
      "name": "transferFrom",
      "outputs": [],
      "stateMutability": "nonpayable",
      "type": "function"
    },
    {
      "inputs": [
        {
          "internalType": "address",
          "name": "newOwner",
          "type": "address"
        }
      ],
      "name": "transferOwnership",
      "outputs": [],
      "stateMutability": "nonpayable",
      "type": "function"
    },
    {
      "inputs": [],
      "name": "unrevealedURI",
      "outputs": [
        {
          "internalType": "string",
          "name": "",
          "type": "string"
        }
      ],
      "stateMutability": "view",
      "type": "function"
    },
    {
      "inputs": [
        {
          "internalType": "address payable",
          "name": "to",
          "type": "address"
        }
      ],
      "name": "withdraw",
      "outputs": [],
      "stateMutability": "nonpayable",
      "type": "function"
    }
  ],
  "bytecode": "0x608060405266c3663566a58000600b5567010a741a46278000600c55600d805460ff19908116909155600f8054909116905560016012555f601355348015610045575f80fd5b50604051612c78380380612c78833981016040819052610064916101b3565b806040518060400160405280600b81526020016a4d6f6d6f2043616e64696560a81b815250604051806040016040528060048152602001634d4f4d4f60e01b815250815f90816100b491906102f8565b5060016100c182826102f8565b5050506001600160a01b0381166100f157604051631e4fbdf760e01b81525f600482015260240160405180910390fd5b6100fa81610133565b5060017f9b779b17422d0df92223018b32b4d1fa46e071723d6817e2486d003becc55f0055601061012b83826102f8565b5050506103b2565b600a80546001600160a01b038381166001600160a01b0319831681179093556040519116919082907f8be0079c531659141344cd1fd0a4f28419497f9722a3daafe3b4186f6b6457e0905f90a35050565b634e487b7160e01b5f52604160045260245ffd5b80516001600160a01b03811681146101ae575f80fd5b919050565b5f80604083850312156101c4575f80fd5b82516001600160401b038111156101d9575f80fd5b8301601f810185136101e9575f80fd5b80516001600160401b0381111561020257610202610184565b604051601f8201601f19908116603f011681016001600160401b038111828210171561023057610230610184565b604052818152828201602001871015610247575f80fd5b8160208401602083015e5f6020838301015280945050505061026b60208401610198565b90509250929050565b600181811c9082168061028857607f821691505b6020821081036102a657634e487b7160e01b5f52602260045260245ffd5b50919050565b601f8211156102f357805f5260205f20601f840160051c810160208510156102d15750805b601f840160051c820191505b818110156102f0575f81556001016102dd565b50505b505050565b81516001600160401b0381111561031157610311610184565b6103258161031f8454610274565b846102ac565b6020601f821160018114610357575f83156103405750848201515b5f19600385901b1c1916600184901b1784556102f0565b5f84815260208120601f198516915b828110156103865787850151825560209485019460019092019101610366565b50848210156103a357868401515f19600387901b60f8161c191681555b50505050600190811b01905550565b6128b9806103bf5f395ff3fe60806040526004361061025e575f3560e01c80636352211e1161013f578063a945bf80116100b3578063c87b56dd11610078578063c87b56dd146106bb578063da0239a6146106da578063e8f467ee146106ee578063e985e9c514610702578063f2fde38b14610721578063f43a22dc1461052d575f80fd5b8063a945bf801461061e578063b0ea180214610633578063b88d4fde14610652578063bc660cac14610671578063c03afb591461069c575f80fd5b80637cb64759116101045780637cb64759146105885780638da5cb5b146105a757806395d89b41146105c4578063a0712d68146105d8578063a22cb465146105eb578063a2309ff81461060a575f80fd5b80636352211e1461050e57806364affb401461052d5780637035bf181461054157806370a0823114610555578063715018a614610574575f80fd5b80632eb4a7ab116101d65780634b780f3c1161019b5780634b780f3c1461046f5780634c261247146104835780634c81433f146104a25780634f6ccce7146104b757806351830227146104d657806351cff8d9146104ef575f80fd5b80632eb4a7ab146103e85780632f745c59146103fd57806332cb6b0c1461041c5780633a0b0d141461043157806342842e0e14610450575f80fd5b8063081812fc11610227578063081812fc14610321578063095ea7b3146103585780630c0a6b5e146103775780631015805b1461038a57806318160ddd146103b557806323b872dd146103c9575f80fd5b80620e7fa81461026257806301ffc9a71461028a578063055ad42e146102b957806305fefda7146102df57806306fdde0314610300575b5f80fd5b34801561026d575f80fd5b50610277600b5481565b6040519081526020015b60405180910390f35b348015610295575f80fd5b506102a96102a4366004612174565b610740565b6040519015158152602001610281565b3480156102c4575f80fd5b50600d546102d29060ff1681565b60405161028191906121a3565b3480156102ea575f80fd5b506102fe6102f93660046121c9565b610750565b005b34801561030b575f80fd5b50610314610763565b6040516102819190612217565b34801561032c575f80fd5b5061034061033b366004612229565b6107f2565b6040516001600160a01b039091168152602001610281565b348015610363575f80fd5b506102fe610372366004612254565b610819565b6102fe61038536600461227e565b610828565b348015610395575f80fd5b506102776103a43660046122f8565b60156020525f908152604090205481565b3480156103c0575f80fd5b50600854610277565b3480156103d4575f80fd5b506102fe6103e3366004612313565b610b1b565b3480156103f3575f80fd5b5061027760115481565b348015610408575f80fd5b50610277610417366004612254565b610ba4565b348015610427575f80fd5b5061027761148281565b34801561043c575f80fd5b506102fe61044b3660046122f8565b610c07565b34801561045b575f80fd5b506102fe61046a366004612313565b610d0a565b34801561047a575f80fd5b50610277600281565b34801561048e575f80fd5b506102fe61049d366004612351565b610d24565b3480156104ad575f80fd5b5061027760135481565b3480156104c2575f80fd5b506102776104d1366004612229565b610e28565b3480156104e1575f80fd5b50600f546102a99060ff1681565b3480156104fa575f80fd5b506102fe6105093660046122f8565b610e7d565b348015610519575f80fd5b50610340610528366004612229565b610fa2565b348015610538575f80fd5b50610277600581565b34801561054c575f80fd5b50610314610fac565b348015610560575f80fd5b5061027761056f3660046122f8565b611038565b34801561057f575f80fd5b506102fe61107d565b348015610593575f80fd5b506102fe6105a2366004612229565b611090565b3480156105b2575f80fd5b50600a546001600160a01b0316610340565b3480156105cf575f80fd5b506103146110d3565b6102fe6105e6366004612229565b6110e2565b3480156105f6575f80fd5b506102fe6106053660046123bf565b611308565b348015610615575f80fd5b50610277611313565b348015610629575f80fd5b50610277600c5481565b34801561063e575f80fd5b506102fe61064d366004612254565b611328565b34801561065d575f80fd5b506102fe61066c36600461240e565b611426565b34801561067c575f80fd5b5061027761068b3660046122f8565b60146020525f908152604090205481565b3480156106a7575f80fd5b506102fe6106b63660046124ef565b61143e565b3480156106c6575f80fd5b506103146106d5366004612229565b611545565b3480156106e5575f80fd5b5061027761161d565b3480156106f9575f80fd5b5061027760fa81565b34801561070d575f80fd5b506102a961071c36600461250d565b611639565b34801561072c575f80fd5b506102fe61073b3660046122f8565b611666565b5f61074a826116a0565b92915050565b6107586116c4565b600b91909155600c55565b60605f805461077190612539565b80601f016020809104026020016040519081016040528092919081815260200182805461079d90612539565b80156107e85780601f106107bf576101008083540402835291602001916107e8565b820191905f5260205f20905b8154815290600101906020018083116107cb57829003601f168201915b5050505050905090565b5f6107fc826116f1565b505f828152600460205260409020546001600160a01b031661074a565b610824828233611729565b5050565b610830611736565b6001600d5460ff1660038111156108495761084961218f565b146108905760405162461bcd60e51b815260206004820152601260248201527150726573616c65206e6f742061637469766560701b60448201526064015b60405180910390fd5b5f831180156108a0575060058311155b6108df5760405162461bcd60e51b815260206004820152601060248201526f496e76616c6964207175616e7469747960801b6044820152606401610887565b82600b546108ed9190612585565b3410156109335760405162461bcd60e51b8152602060048201526014602482015273125b9cdd59999a58da595b9d081c185e5b595b9d60621b6044820152606401610887565b335f9081526014602052604090205460029061095090859061259c565b111561099e5760405162461bcd60e51b815260206004820152601d60248201527f50726573616c652077616c6c6574206c696d69742065786365656465640000006044820152606401610887565b6109ab60fa6114826125af565b6001846012546109bb919061259c565b6109c591906125af565b1115610a0c5760405162461bcd60e51b8152602060048201526016602482015275457863656564732070726573616c6520737570706c7960501b6044820152606401610887565b604080513360208201525f910160408051601f1981840301815282825280516020918201209083015201604051602081830303815290604052805190602001209050610a8e8383808060200260200160405190810160405280939291908181526020018383602002808284375f92019190915250506011549150849050611751565b610ad15760405162461bcd60e51b815260206004820152601460248201527324b73b30b634b21036b2b935b63290383937b7b360611b6044820152606401610887565b335f9081526014602052604081208054869290610aef90849061259c565b90915550610aff90503385611766565b50610b1660015f8051602061286483398151915255565b505050565b6001600160a01b038216610b4457604051633250574960e11b81525f6004820152602401610887565b5f610b50838333611796565b9050836001600160a01b0316816001600160a01b031614610b9e576040516364283d7b60e01b81526001600160a01b0380861660048301526024820184905282166044820152606401610887565b50505050565b5f610bae83611038565b8210610bdf5760405163295f44f760e21b81526001600160a01b038416600482015260248101839052604401610887565b506001600160a01b03919091165f908152600660209081526040808320938352929052205490565b610c0f6116c4565b600f5460ff16610c615760405162461bcd60e51b815260206004820152601a60248201527f4d7573742072657665616c206265666f72652068616e646f66660000000000006044820152606401610887565b6001600160a01b038116610cad5760405162461bcd60e51b8152602060048201526013602482015272496e76616c69642044414f206164647265737360681b6044820152606401610887565b806001600160a01b0316610cc9600a546001600160a01b031690565b6001600160a01b03167f3b203717696e474dcd9d32cf4233d30668fd8498b7721b07df42d434e38d6bb060405160405180910390a3610d0781611666565b50565b610b1683838360405180602001604052805f815250611426565b610d2c6116c4565b600f5460ff1615610d725760405162461bcd60e51b815260206004820152601060248201526f105b1c9958591e481c995d99585b195960821b6044820152606401610887565b6003600d5460ff166003811115610d8b57610d8b61218f565b14610dcf5760405162461bcd60e51b81526020600482015260146024820152734d75737420626520434c4f53454420706861736560601b6044820152606401610887565b600e610ddc828483612606565b50600f805460ff191660011790556040517f34f25fe82e04b6b4bb3440737372e9d5d8e7a6a2b12da5dc4abead2c0b544ad990610e1c90849084906126c0565b60405180910390a15050565b5f610e3260085490565b8210610e5a5760405163295f44f760e21b81525f600482015260248101839052604401610887565b60088281548110610e6d57610e6d6126ee565b905f5260205f2001549050919050565b610e856116c4565b4780610ec95760405162461bcd60e51b81526020600482015260136024820152724e6f7468696e6720746f20776974686472617760681b6044820152606401610887565b5f826001600160a01b0316826040515f6040518083038185875af1925050503d805f8114610f12576040519150601f19603f3d011682016040523d82523d5f602084013e610f17565b606091505b5050905080610f5a5760405162461bcd60e51b815260206004820152600f60248201526e151c985b9cd9995c8819985a5b1959608a1b6044820152606401610887565b826001600160a01b03167f7084f5476618d8e60b11ef0d7d3f06914655adb8793e28ff7f018d4c76d505d583604051610f9591815260200190565b60405180910390a2505050565b5f61074a826116f1565b60108054610fb990612539565b80601f0160208091040260200160405190810160405280929190818152602001828054610fe590612539565b80156110305780601f1061100757610100808354040283529160200191611030565b820191905f5260205f20905b81548152906001019060200180831161101357829003601f168201915b505050505081565b5f6001600160a01b038216611062576040516322718ad960e21b81525f6004820152602401610887565b506001600160a01b03165f9081526003602052604090205490565b6110856116c4565b61108e5f6117aa565b565b6110986116c4565b60118190556040518181527f90004c04698bc3322499a575ed3752dd4abf33e0a7294c06a787a0fe01bea9419060200160405180910390a150565b60606001805461077190612539565b6110ea611736565b6002600d5460ff1660038111156111035761110361218f565b146111495760405162461bcd60e51b81526020600482015260166024820152755075626c6963206d696e74206e6f742061637469766560501b6044820152606401610887565b5f81118015611159575060058111155b6111985760405162461bcd60e51b815260206004820152601060248201526f496e76616c6964207175616e7469747960801b6044820152606401610887565b80600c546111a69190612585565b3410156111ec5760405162461bcd60e51b8152602060048201526014602482015273125b9cdd59999a58da595b9d081c185e5b595b9d60621b6044820152606401610887565b335f9081526015602052604090205460059061120990839061259c565b11156112575760405162461bcd60e51b815260206004820152601c60248201527f5075626c69632077616c6c6574206c696d6974206578636565646564000000006044820152606401610887565b61126460fa6114826125af565b600182601254611274919061259c565b61127e91906125af565b11156112c45760405162461bcd60e51b815260206004820152601560248201527445786365656473207075626c696320737570706c7960581b6044820152606401610887565b335f90815260156020526040812080548392906112e290849061259c565b909155506112f290503382611766565b610d0760015f8051602061286483398151915255565b6108243383836117fb565b5f600160125461132391906125af565b905090565b6113306116c4565b611338611736565b60fa81601354611348919061259c565b111561138f5760405162461bcd60e51b815260206004820152601660248201527514995cd95c9d99481b1a5b5a5d08195e18d95959195960521b6044820152606401610887565b6114826001826012546113a2919061259c565b6113ac91906125af565b11156113ef5760405162461bcd60e51b815260206004820152601260248201527145786365656473206d617820737570706c7960701b6044820152606401610887565b8060135f828254611400919061259c565b9091555061141090508282611766565b61082460015f8051602061286483398151915255565b611431848484610b1b565b610b9e33858585856118c2565b6114466116c4565b600d5460ff16600381111561145d5761145d61218f565b611468906001612702565b60ff1681600381111561147d5761147d61218f565b60ff16146114cd5760405162461bcd60e51b815260206004820152601b60248201527f4d75737420616476616e636520706861736520696e206f7264657200000000006044820152606401610887565b8060038111156114df576114df61218f565b600d5460ff1660038111156114f6576114f661218f565b6040517feeb345fea22465c927333e05d324ee5b476597701d8be7e5d9aacc60e7aefbaf905f90a3600d805482919060ff1916600183600381111561153d5761153d61218f565b021790555050565b6060611550826116f1565b50600f5460ff166115eb576010805461156890612539565b80601f016020809104026020016040519081016040528092919081815260200182805461159490612539565b80156115df5780601f106115b6576101008083540402835291602001916115df565b820191905f5260205f20905b8154815290600101906020018083116115c257829003601f168201915b50505050509050919050565b600e6115f6836119ea565b60405160200161160792919061271b565b6040516020818303038152906040529050919050565b5f600160125461162d91906125af565b611323906114826125af565b6001600160a01b039182165f90815260056020908152604080832093909416825291909152205460ff1690565b61166e6116c4565b6001600160a01b03811661169757604051631e4fbdf760e01b81525f6004820152602401610887565b610d07816117aa565b5f6001600160e01b0319821663780e9d6360e01b148061074a575061074a82611ae7565b600a546001600160a01b0316331461108e5760405163118cdaa760e01b8152336004820152602401610887565b5f818152600260205260408120546001600160a01b03168061074a57604051637e27328960e01b815260048101849052602401610887565b610b168383836001611b36565b61173e611c3a565b60025f8051602061286483398151915255565b5f8261175d8584611c69565b14949350505050565b5f5b81811015610b16576012805461178e918591905f611785836127a6565b91905055611cab565b600101611768565b5f6117a2848484611cc4565b949350505050565b600a80546001600160a01b038381166001600160a01b0319831681179093556040519116919082907f8be0079c531659141344cd1fd0a4f28419497f9722a3daafe3b4186f6b6457e0905f90a35050565b6001600160a01b0383166118245760405163a9fbf51f60e01b81525f6004820152602401610887565b6001600160a01b03821661185657604051630b61174360e31b81526001600160a01b0383166004820152602401610887565b6001600160a01b038381165f81815260056020908152604080832094871680845294825291829020805460ff191686151590811790915591519182527f17307eab39ab6107e8899845ad3d59bd9653f200f220920489ca2b5937696c31910160405180910390a3505050565b6001600160a01b0383163b156119e357604051630a85bd0160e11b81526001600160a01b0384169063150b7a02906119049088908890879087906004016127be565b6020604051808303815f875af192505050801561193e575060408051601f3d908101601f1916820190925261193b918101906127fa565b60015b6119a5573d80801561196b576040519150601f19603f3d011682016040523d82523d5f602084013e611970565b606091505b5080515f0361199d57604051633250574960e11b81526001600160a01b0385166004820152602401610887565b805160208201fd5b6001600160e01b03198116630a85bd0160e11b146119e157604051633250574960e11b81526001600160a01b0385166004820152602401610887565b505b5050505050565b6060815f03611a105750506040805180820190915260018152600360fc1b602082015290565b815f5b8115611a395780611a23816127a6565b9150611a329050600a83612829565b9150611a13565b5f8167ffffffffffffffff811115611a5357611a536123fa565b6040519080825280601f01601f191660200182016040528015611a7d576020820181803683370190505b5090505b84156117a257611a926001836125af565b9150611a9f600a8661283c565b611aaa90603061259c565b60f81b818381518110611abf57611abf6126ee565b60200101906001600160f81b03191690815f1a905350611ae0600a86612829565b9450611a81565b5f6001600160e01b031982166380ac58cd60e01b1480611b1757506001600160e01b03198216635b5e139f60e01b145b8061074a57506301ffc9a760e01b6001600160e01b031983161461074a565b8080611b4a57506001600160a01b03821615155b15611c0b575f611b59846116f1565b90506001600160a01b03831615801590611b855750826001600160a01b0316816001600160a01b031614155b8015611b985750611b968184611639565b155b15611bc15760405163a9fbf51f60e01b81526001600160a01b0384166004820152602401610887565b8115611c095783856001600160a01b0316826001600160a01b03167f8c5be1e5ebec7d5bd14f71427d1e84f3dd0314c0f7b2291e5b200ac8c7c3b92560405160405180910390a45b505b50505f90815260046020526040902080546001600160a01b0319166001600160a01b0392909216919091179055565b5f805160206128648339815191525460020361108e57604051633ee5aeb560e01b815260040160405180910390fd5b5f81815b8451811015611ca357611c9982868381518110611c8c57611c8c6126ee565b6020026020010151611d8f565b9150600101611c6d565b509392505050565b610824828260405180602001604052805f815250611dbe565b5f80611cd1858585611dd5565b90506001600160a01b038116611d2d57611d2884600880545f838152600960205260408120829055600182018355919091527ff3f7a9fe364faab93b216da50a3214154f22a0a2b415b23a84c8169e8b636ee30155565b611d50565b846001600160a01b0316816001600160a01b031614611d5057611d508185611ec7565b6001600160a01b038516611d6c57611d6784611f44565b6117a2565b846001600160a01b0316816001600160a01b0316146117a2576117a28585611feb565b5f818310611da9575f828152602084905260409020611db7565b5f8381526020839052604090205b9392505050565b611dc88383612039565b610b16335f8585856118c2565b5f828152600260205260408120546001600160a01b0390811690831615611e0157611e0181848661209a565b6001600160a01b03811615611e3b57611e1c5f855f80611b36565b6001600160a01b0381165f90815260036020526040902080545f190190555b6001600160a01b03851615611e69576001600160a01b0385165f908152600360205260409020805460010190555b5f8481526002602052604080822080546001600160a01b0319166001600160a01b0389811691821790925591518793918516917fddf252ad1be2c89b69c2b068fc378daa952ba7f163c4a11628f55a4df523b3ef91a4949350505050565b5f611ed183611038565b5f838152600760209081526040808320546001600160a01b0388168452600690925290912091925090818314611f26575f83815260208281526040808320548584528184208190558352600790915290208290555b5f938452600760209081526040808620869055938552525081205550565b6008545f90611f55906001906125af565b5f8381526009602052604081205460088054939450909284908110611f7c57611f7c6126ee565b905f5260205f20015490508060088381548110611f9b57611f9b6126ee565b5f918252602080832090910192909255828152600990915260408082208490558582528120556008805480611fd257611fd261284f565b600190038181905f5260205f20015f9055905550505050565b5f6001611ff784611038565b61200191906125af565b6001600160a01b039093165f908152600660209081526040808320868452825280832085905593825260079052919091209190915550565b6001600160a01b03821661206257604051633250574960e11b81525f6004820152602401610887565b5f61206e83835f611796565b90506001600160a01b03811615610b16576040516339e3563760e11b81525f6004820152602401610887565b6120a58383836120fe565b610b16576001600160a01b0383166120d357604051637e27328960e01b815260048101829052602401610887565b60405163177e802f60e01b81526001600160a01b038316600482015260248101829052604401610887565b5f6001600160a01b038316158015906117a25750826001600160a01b0316846001600160a01b0316148061213757506121378484611639565b806117a25750505f908152600460205260409020546001600160a01b03908116911614919050565b6001600160e01b031981168114610d07575f80fd5b5f60208284031215612184575f80fd5b8135611db78161215f565b634e487b7160e01b5f52602160045260245ffd5b60208101600483106121c357634e487b7160e01b5f52602160045260245ffd5b91905290565b5f80604083850312156121da575f80fd5b50508035926020909101359150565b5f81518084528060208401602086015e5f602082860101526020601f19601f83011685010191505092915050565b602081525f611db760208301846121e9565b5f60208284031215612239575f80fd5b5035919050565b6001600160a01b0381168114610d07575f80fd5b5f8060408385031215612265575f80fd5b823561227081612240565b946020939093013593505050565b5f805f60408486031215612290575f80fd5b83359250602084013567ffffffffffffffff8111156122ad575f80fd5b8401601f810186136122bd575f80fd5b803567ffffffffffffffff8111156122d3575f80fd5b8660208260051b84010111156122e7575f80fd5b939660209190910195509293505050565b5f60208284031215612308575f80fd5b8135611db781612240565b5f805f60608486031215612325575f80fd5b833561233081612240565b9250602084013561234081612240565b929592945050506040919091013590565b5f8060208385031215612362575f80fd5b823567ffffffffffffffff811115612378575f80fd5b8301601f81018513612388575f80fd5b803567ffffffffffffffff81111561239e575f80fd5b8560208284010111156123af575f80fd5b6020919091019590945092505050565b5f80604083850312156123d0575f80fd5b82356123db81612240565b9150602083013580151581146123ef575f80fd5b809150509250929050565b634e487b7160e01b5f52604160045260245ffd5b5f805f8060808587031215612421575f80fd5b843561242c81612240565b9350602085013561243c81612240565b925060408501359150606085013567ffffffffffffffff81111561245e575f80fd5b8501601f8101871361246e575f80fd5b803567ffffffffffffffff811115612488576124886123fa565b604051601f8201601f19908116603f0116810167ffffffffffffffff811182821017156124b7576124b76123fa565b6040528181528282016020018910156124ce575f80fd5b816020840160208301375f6020838301015280935050505092959194509250565b5f602082840312156124ff575f80fd5b813560048110611db7575f80fd5b5f806040838503121561251e575f80fd5b823561252981612240565b915060208301356123ef81612240565b600181811c9082168061254d57607f821691505b60208210810361256b57634e487b7160e01b5f52602260045260245ffd5b50919050565b634e487b7160e01b5f52601160045260245ffd5b808202811582820484141761074a5761074a612571565b8082018082111561074a5761074a612571565b8181038181111561074a5761074a612571565b601f821115610b1657805f5260205f20601f840160051c810160208510156125e75750805b601f840160051c820191505b818110156119e3575f81556001016125f3565b67ffffffffffffffff83111561261e5761261e6123fa565b6126328361262c8354612539565b836125c2565b5f601f841160018114612663575f851561264c5750838201355b5f19600387901b1c1916600186901b1783556119e3565b5f83815260208120601f198716915b828110156126925786850135825560209485019460019092019101612672565b50868210156126ae575f1960f88860031b161c19848701351681555b505060018560011b0183555050505050565b60208152816020820152818360408301375f818301604090810191909152601f909201601f19160101919050565b634e487b7160e01b5f52603260045260245ffd5b60ff818116838216019081111561074a5761074a612571565b5f80845461272881612539565b60018216801561273f576001811461275457612781565b60ff1983168652811515820286019350612781565b875f5260205f205f5b838110156127795781548882015260019091019060200161275d565b505081860193505b50505083518060208601835e64173539b7b760d91b9101908152600501949350505050565b5f600182016127b7576127b7612571565b5060010190565b6001600160a01b03858116825284166020820152604081018390526080606082018190525f906127f0908301846121e9565b9695505050505050565b5f6020828403121561280a575f80fd5b8151611db78161215f565b634e487b7160e01b5f52601260045260245ffd5b5f8261283757612837612815565b500490565b5f8261284a5761284a612815565b500690565b634e487b7160e01b5f52603160045260245ffdfe9b779b17422d0df92223018b32b4d1fa46e071723d6817e2486d003becc55f00a26469706673582212207c460e0654da87c1044e713b64b8e0f458d970c69ec084f5a3435a1fea67f8a964736f6c634300081a0033",
  "linkReferences": {},
  "deployedLinkReferences": {}
}